:020000040000FA
:100000000C9462000C948A000C948A000C948A0070
:100010000C948A000C948A000C948A000C948A0038
:100020000C948A000C948A000C948A000C948A0028
:100030000C948A000C948A000C948A000C948A0018
:100040000C942C030C948A000C948A000C948A0063
:100050000C948A000C948A000C948A000C948A00F8
:100060000C948A000C948A000000000024002700F1
:100070002A0000000000250028002B0000000000DE
:1000800023002600290004040404040404040202DA
:100090000202020203030303030301020408102007
:1000A0004080010204081020010204081020000012
:1000B0000008000201000003040700000000000027
:1000C0000000FC0411241FBECFEFD8E0DEBFCDBF7F
:1000D00011E0A0E0B1E0E6EAFCE002C005900D927C
:1000E000AE37B107D9F721E0AEE7B1E001C01D920C
:1000F000AF39B207E1F710E0C2E6D0E004C02197C3
:10010000FE010E944B06C136D107C9F70E94BB030E
:100110000C9451060C940000AF92BF92CF92DF92E4
:10012000EF92FF920F931F93CF93DF936C017B01AC
:100130008B01040F151FEB015E01AE18BF08C0173D
:10014000D10759F06991D601ED91FC910190F081B0
:10015000E02DC6010995892B79F7C501DF91CF9173
:100160001F910F91FF90EF90DF90CF90BF90AF90D5
:100170000895833081F028F4813099F08230A9F01D
:1001800008958730A9F08830C9F08430B1F48091A7
:1001900080008F7D03C0809180008F7780938000E6
:1001A000089584B58F7784BD089584B58F7DFBCF86
:1001B0008091B0008F778093B00008958091B00057
:1001C0008F7DF9CF1F93CF93DF93282F30E0F90174
:1001D000E255FF4F8491F901E656FF4FD491F901A2
:1001E000EA57FF4FC491CC23A9F0162F81110E942A
:1001F000B900EC2FF0E0EE0FFF1FEE58FF4FA59176
:10020000B4918FB7F894EC91111108C0D095DE230A
:10021000DC938FBFDF91CF911F910895DE2BF8CF34
:10022000CF93DF9390E0FC01E656FF4F24918A576D
:100230009F4FFC0184918823D1F090E0880F991F93
:10024000FC01E859FF4FA591B491FC01EE58FF4F16
:10025000C591D49161110EC09FB7F8948C91E22F93
:10026000E0958E238C932881E223E8839FBFDF9162
:10027000CF9108958FB7F894EC91E22BEC938FBF58
:10028000F6CF3FB7F8948091830190918401A091BB
:100290008501B091860126B5A89B05C02F3F19F0B6
:1002A0000196A11DB11D3FBFBA2FA92F982F8827F6
:1002B000BC01CD01620F711D811D911D42E0660FD1
:1002C000771F881F991F4A95D1F708958F929F92A3
:1002D000AF92BF92CF92DF92EF92FF924B015C01FF
:1002E0000E9441016B017C010E9441016C197D0952
:1002F0008E099F09683E734081059105A8F321E0AE
:10030000821A9108A108B10888EEC80E83E0D81EB1
:10031000E11CF11C81149104A104B10429F7FF90A0
:10032000EF90DF90CF90BF90AF909F908F90089507
:10033000089590E080E00895FC0101900020E9F725
:100340003197AF01481B590BBC0187E891E00C9431
:100350008C00CF93DF93EC0160E08E810E94E2007D
:1003600061E08E810E94E20060E08E810E94E200E6
:100370008BE891E00197F1F7DF91CF910895CF924B
:10038000DF92EF92FF920F931F93CF93DF936C0155
:100390007C0187E0E80EF11CD0E0C0E0062F10E001
:1003A000B8010C2E02C0759567950A94E2F761704A
:1003B000F70181917F010E94E2002196C430D105AE
:1003C00079F7C601DF91CF911F910F91FF90EF90C8
:1003D000DF90CF900C94A901CF92DF92EF92FF9221
:1003E0000F931F93CF93DF93EC01F62E642F8C8134
:1003F0000E94E2008D818F3F19F060E00E94E200D0
:100400000F2D10E08F8584FF25C06E0187E0C80E98
:10041000D11CF12CE12CB8010E2C02C0759567950A
:100420000A94E2F76170F60181916F010E94E20087
:10043000FFEFEF1AFF0A88E0E816F10461F7CE013A
:10044000DF91CF911F910F91FF90EF90DF90CF90B0
:100450000C94A901B80184E0759567958A95E1F738
:10046000CE010E94BF016F2DCE01DF91CF911F9170
:100470000F91FF90EF90DF90CF900C94BF0140E080
:10048000682F87E891E00C94EC0181E00E943F0224
:100490008BE39FE10197F1F70895CF93DF938230CB
:1004A00029F49091960198609093960180939A0117
:1004B00010929B0180E480939C0180E180939D01D8
:1004C00080E580939E0161E080918B010E94100184
:1004D00080918C018F3F19F061E00E94100161E072
:1004E00080918D010E941001C7E8D1E09E0127583C
:1004F00031408091960184FD0BC084E090E021960C
:100500002817390744F461E08E810E941001EECF74
:1005100088E090E0F4CF8BE39DE00197F1F760E095
:1005200080918B010E94E20060E080918D010E9429
:10053000E20080918C018F3F19F060E00E94E200A0
:100540008091960184FD34C063E087E891E00E94C9
:10055000BF01CBE4D6E4CE010197F1F763E087E871
:1005600091E00E94BF012197F1F763E087E891E0F5
:100570000E94BF0183E592E00197F1F762E087E80E
:1005800091E00E94BF018091960180620E943F022B
:1005900084E0809397018CE00E943F020E94450214
:1005A00082E08093980186E0DF91CF910C943F0226
:1005B00080620E943F028BE496E40197F1F78091FC
:1005C000960180620E943F0283E592E00197F1F775
:1005D0008091960180620E943F02D5CF90919A014E
:1005E000891710F08FEF890FE82FF0E0E957FE4FE1
:1005F000848980680C943F0280E00E94EE028CE0C7
:1006000091E00E949C0181E00E94EE028DE191E068
:100610000E949C0164E670E080E090E00E94660128
:100620000E94450280E00E94EE028CE291E00E946E
:100630009C0181E00E94EE028DE391E00E949C010A
:1006400064E670E080E090E00C94660141E00E9476
:10065000EC0181E090E008951F920F920FB60F9287
:1006600011242F933F938F939F93AF93BF938091C8
:100670007F0190918001A0918101B0918201309120
:100680007E0123E0230F2D3758F50196A11DB11DE2
:1006900020937E0180937F0190938001A09381013C
:1006A000B09382018091830190918401A091850192
:1006B000B09186010196A11DB11D80938301909395
:1006C0008401A0938501B0938601BF91AF919F9162
:1006D0008F913F912F910F900FBE0F901F90189503
:1006E00026E8230F0296A11DB11DD2CFCF92DF9233
:1006F000EF92FF920F931F93E82FF92F05C001503F
:1007000011092109310961F1908196239417B9F3F8
:1007100005C0015011092109310911F19081962379
:100720009413F7CFC12CD12CE12CF12C0AC08FEF00
:10073000C81AD80AE80AF80A0C151D052E053F0547
:1007400079F080818623841791F36C2D7D2D8E2D79
:100750009F2D1F910F91FF90EF90DF90CF90089504
:1007600060E070E080E090E01F910F91FF90EF90CB
:10077000DF90CF900895789484B5826084BD84B56D
:10078000816084BD85B5826085BD85B5816085BD8C
:1007900080916E00816080936E0010928100809144
:1007A00081008260809381008091810081608093CC
:1007B0008100809180008160809380008091B100F1
:1007C00084608093B1008091B00081608093B0001C
:1007D00080917A00846080937A0080917A008260B0
:1007E00080937A0080917A00816080937A00809172
:1007F0007A00806880937A001092C10082E00E94A3
:100800004D0261E08BE00E94100160E08AE00E94EE
:10081000100161E089E00E94100161E08CE00E941B
:10082000100161E08DE00E94100160E08CE00E9408
:10083000E20061E08DE00E94E20064E670E080E0AA
:1008400090E00E9466010E94FC02C3E0D0E023E237
:10085000E22EF12C34EA232E30E0332E40E9442EF0
:1008600040E0542E56EB652E50E0752E62EAC62EFF
:1008700060E0D62E7EE8A72E70E0B72EE0E08E2E48
:10088000E0E09E2E60E08BE00E94E200CE01019746
:10089000F1F761E08BE00E94E200C7010197F1F7F8
:1008A00060E08BE00E94E200F1016491F20184912A
:1008B000E82FF0E0EE0FFF1FE458FF4F8591949171
:1008C00000E412E42FE030E0462F0E947603611529
:1008D00071058105910529F06F5F7F4F8F4F9F4F05
:1008E0009F700E94520526E933E44BE05DE30E94CD
:1008F000B60520E030E040E05FE30E94B6050E94CC
:100900001A05653671050CF058C080E00E94EE02B1
:1009100080E591E00E949C0181E00E94EE028EE160
:1009200091E00E949C0164E670E080E090E00E940B
:1009300066010E944502F3018491F6011491F501CC
:100940000491002311F381110E94B900E02FF0E01F
:10095000EE0FFF1FE458FF4FA591B4918C9118231F
:10096000A1F261E089E00E94100161E089E00E944B
:10097000E20061E08CE00E94E20060E08DE00E9415
:10098000E20068EE73E080E090E00E94660180E0A3
:100990000E94EE028DE591E00E949C0181E00E94A0
:1009A000EE028EE691E00E949C0164E670E080E039
:1009B00090E00E9466010E94450260E08CE00E9487
:1009C000E20061E08DE00E94E20061E089E00E94C7
:1009D000100160E089E00E94E20064E170E080E0E4
:1009E00090E00E9466010E94FC028114910409F4C7
:1009F00049CF0E94000046CFE7E8F1E0138212825F
:100A000084E091E09183808382E084838FEF85830B
:100A100083E0868384E0878385E0808786E0818722
:100A200087E082871386148615861686178681E0EE
:100A30000C944D020E9421056894B1110C94B005EC
:100A400008950E94950588F09F5798F0B92F99272F
:100A5000B751B0F0E1F0660F771F881F991F1AF0A9
:100A6000BA95C9F714C0B13091F00E94AF05B1E05A
:100A700008950C94AF05672F782F8827B85F39F059
:100A8000B93FCCF3869577956795B395D9F73EF442
:100A900090958095709561957F4F8F4F9F4F0895EA
:100AA000E89409C097FB3EF4909580957095619508
:100AB0007F4F8F4F9F4F9923A9F0F92F96E9BB27BE
:100AC0009395F695879577956795B795F111F8CF3A
:100AD000FAF4BB0F11F460FF1BC06F5F7F4F8F4FA5
:100AE0009F4F16C0882311F096E911C0772321F09B
:100AF0009EE8872F762F05C0662371F096E8862F33
:100B000070E060E02AF09A95660F771F881FDAF789
:100B1000880F9695879597F9089557FD9058440F3B
:100B2000551F59F05F3F71F04795880F97FB991F4C
:100B300061F09F3F79F08795089512161306140609
:100B4000551FF2CF4695F1DF08C016161706180696
:100B5000991FF1CF86957105610508940895E89471
:100B6000BB2766277727CB0197F908950E94C9050F
:100B70000C943A060E942C0638F00E94330620F0AE
:100B8000952311F00C9423060C94290611240C943F
:100B9000B0050E948D0570F3959FC1F3950F50E04D
:100BA000551F629FF001729FBB27F00DB11D639F1F
:100BB000AA27F00DB11DAA1F649F6627B00DA11DC5
:100BC000661F829F2227B00DA11D621F739FB00D6B
:100BD000A11D621F839FA00D611D221F749F3327DB
:100BE000A00D611D231F849F600D211D822F762F74
:100BF0006A2F11249F5750409AF0F1F088234AF051
:100C0000EE0FFF1FBB1F661F771F881F91505040BC
:100C1000A9F79E3F510580F00C9423060C94B00573
:100C20005F3FE4F3983ED4F3869577956795B79543
:100C3000F795E7959F5FC1F7FE2B880F911D96955D
:100C4000879597F9089597F99F6780E870E060E0CD
:100C500008959FEF80EC089500240A941616170655
:100C600018060906089500240A941216130614069D
:100C700005060895092E0394000C11F4882352F000
:100C8000BB0F40F4BF2B11F460FF04C06F5F7F4FB8
:100C90008F4F9F4F0895EE0FFF1F0590F491E02DA9
:100CA0000994F894FFCF0000000026038C009901FE
:100CB00098014849205448455245205448495320FA
:100CC0004953002041434443204348414D4245524B
:100CD000200020202042494C494B204143444320DE
:100CE000202000202020524541445920544F2055B7
:100CF000534520202000454C454B54524F20495429
:100D00004B200020205448414E4B5320544845521C
:100D10004520200020414E44205354415920534146
:040D20004645200024
:107E0000112484B714BE81FFF0D085E080938100F7
:107E100082E08093C00088E18093C10086E0809377
:107E2000C20080E18093C4008EE0C9D0259A86E02C
:107E300020E33CEF91E0309385002093840096BBD3
:107E4000B09BFECF1D9AA8958150A9F7CC24DD24C4
:107E500088248394B5E0AB2EA1E19A2EF3E0BF2EE7
:107E6000A2D0813461F49FD0082FAFD0023811F036
:107E7000013811F484E001C083E08DD089C08234E0
:107E800011F484E103C0853419F485E0A6D080C0E4
:107E9000853579F488D0E82EFF2485D0082F10E0AE
:107EA000102F00270E291F29000F111F8ED06801E7
:107EB0006FC0863521F484E090D080E0DECF843638
:107EC00009F040C070D06FD0082F6DD080E0C81688
:107ED00080E7D80618F4F601B7BEE895C0E0D1E017
:107EE00062D089930C17E1F7F0E0CF16F0E7DF06D8
:107EF00018F0F601B7BEE89568D007B600FCFDCFD4
:107F0000A601A0E0B1E02C9130E011968C91119780
:107F100090E0982F8827822B932B1296FA010C0160
:107F200087BEE89511244E5F5F4FF1E0A038BF0790
:107F300051F7F601A7BEE89507B600FCFDCF97BE46
:107F4000E89526C08437B1F42ED02DD0F82E2BD052
:107F50003CD0F601EF2C8F010F5F1F4F84911BD097
:107F6000EA94F801C1F70894C11CD11CFA94CF0C13
:107F7000D11C0EC0853739F428D08EE10CD085E9AC
:107F80000AD08FE07ACF813511F488E018D01DD067
:107F900080E101D065CF982F8091C00085FFFCCF94
:107FA0009093C60008958091C00087FFFCCF809118
:107FB000C00084FD01C0A8958091C6000895E0E648
:107FC000F0E098E1908380830895EDDF803219F02E
:107FD00088E0F5DFFFCF84E1DECF1F93182FE3DFCA
:107FE0001150E9F7F2DF1F91089580E0E8DFEE27F6
:047FF000FF270994CA
:027FFE00040479
:00000001FF
